:020000040800F2
:10000000580B0020E1140008590300085B030008A6
:100010005F03000863030008670300080000000096
:100020000000000000000000000000006B0300085A
:100030006D030008000000006F0300087103000852
:10004000FB140008FB140008FB140008FB14000854
:10005000FB140008FB140008FB140008FB14000844
:10006000FB140008FB140008FB140008FB14000834
:10007000FB140008FB140008FB140008FB14000824
:10008000FB140008FB140008FB140008FB14000814
:10009000FB140008FB140008FB140008FB14000804
:1000A000FB140008FB140008FB140008FB140008F4
:1000B00001140008FB140008FB140008FB140008DE
:1000C000FB140008FB140008FB140008FB140008D4
:1000D000FB1400087F130008FB140008FB14000841
:1000E000FB140008FB140008FB140008FB140008B4
:1000F000FB140008FB140008FB140008FB140008A4
:10010000FB140008FB140008FB140008FB14000893
:10011000FB140008FB140008FB140008FB14000883
:10012000FB140008FB140008FB140008FB14000873
:1001300000F002F800F090F80AA090E8000C824469
:100140008344AAF10107DA4501D100F085F8AFF246
:10015000090EBAE80F0013F0010F18BFFB1A43F0A5
:10016000010318476060000080600000103A24BF5F
:1001700078C878C1FAD8520724BF30C830C144BF0C
:1001800004680C607047000000230024002500264E
:10019000103A28BF78C1FBD8520728BF30C148BFEA
:1001A0000B6070476E2903F0AA80702903F0038466
:1001B000662904F0B983652904F0B683672904F041
:1001C000B3836129AFF3008003681B0A28BF41F0A5
:1001D0008001692902F0FC86642902F0F9867529FC
:1001E00002F0F6866F2903F09083782903F0CF831D
:1001F000E92903F02B83E42903F02883F52903F090
:100200002583EF2903F08D83F82903F0CE8303685B
:10021000DB0928BF41F08001632903F06B84732957
:1002200003F07084E32903F07B84F32903F08084D6
:10023000002070471FB503F0C9FB04000020002117
:1002400004F088F9401C60600020002104F06CF983
:10025000E0601FBD10B510BD03F004FD1146FFF7AF
:10026000E9FF00F009F803F02BFD03B4FFF7F2FFFC
:1002700003BC03F06FFD00001CB500F035FF00F07B
:1002800069F900F081FB00F0ABFA4FF4E13000F0C7
:1002900095FF00F097FE002000F005FC002000F024
:1002A00010FC00F063FC41F61F4141F2873001F081
:1002B00079F82AE0154B164A1649174800F02DFB2D
:1002C0001248007812490978CDE9001011480378E6
:1002D0001148027811A11A4801F02DF8462000F0CB
:1002E0002CFA70B900F085FA1649086008460068D3
:1002F00004F04CF9044622460B4613A1104801F0C5
:100300001AF840F6B83000F02CFFD3E703000020C5
:1003100002000020010000200000002068756D69C7
:10032000646974793A25642E2564202074656D70A3
:10033000657261747572653A25642E25642020000B
:1003400000380140040000204C696768743A253188
:100350002E66206C780D0A00704700BFFEE700BFD4
:10036000FEE700BFFEE700BFFEE77047704770473B
:10037000704700000CB50020019000906C480068A8
:1003800040F480306A49086000BF6948006800F4A2
:10039000003000900198401C0190009818B9019815
:1003A000B0F5A06FF1D16248006800F4003010B1E0
:1003B0000120009001E0002000900098012843D126
:1003C0005C48006840F010005A4908600846006820
:1003D00020F0030008600846006840F00200086052
:1003E000534840685249486008464068486008469B
:1003F000406840F4806048600846406820F47C1003
:1004000048600846406840F4E810486008460068C4
:1004100040F08070086000BF4548006800F0007040
:100420000028F9D04248406820F003004049486065
:100430000846406840F00200486000BF3C48406801
:1004400000F00C000828F9D10CBD10B5FFF792FFA1
:1004500010BD10B53648006840F00100344908600E
:1004600008464068344908403149486008460068F9
:10047000324908402E4908600846006820F4802070
:1004800008600846406820F4FE0048604FF41F00F2
:100490008860FFF7DAFF4FF000602949086010BD5F
:1004A00010B5002100200022214B5B6803F00C01F5
:1004B00021B1042906D0082928D107E0214B224C7C
:1004C000236027E01F4B204C236023E0184B5B6820
:1004D00003F47010164B5B6803F48032022303EBC5
:1004E000904022B9194B4343174C23600DE0104B49
:1004F0005B6803F4003323B1144B4343124C236075
:1005000003E0104B4343104C236003E00D4B0E4CB3
:10051000236000BF00BF064B5B68C3F303130C4CA2
:10052000E15C094B1B68CB40074C236010BD000009
:1005300000100240002002400000FFF8FFFFF6FE1E
:1005400008ED00E000127A000800002000093D00DC
:100550000C00002008B50121142001F0FDFA102044
:10056000ADF800008DF8030003208DF80200694605
:100570000A4801F035F81021084801F0DEF84FF480
:100580000050ADF800006946054801F029F84FF425
:100590000051034801F0D1F808BD000000080140F7
:1005A00000100140002001E0411CC8B20A28FBDB1A
:1005B000704710B580209749086040200860FFF719
:1005C000F1FF80209349091D0860FFF7EBFF4020F1
:1005D0009049091D0860FFF7E5FF10BD10B58020A8
:1005E0008C49091D08604020091F0860FFF7DAFFE9
:1005F00080208849086010BD70B50446002520E0C1
:1006000004F0800018B180208249086003E0802057
:100610008049091D0860FFF7C5FF40207D4908603B
:10062000FFF7C0FF40207B49091D0860072D02D15C
:100630008020091F08606006040EFFF7B3FF681CE6
:10064000C5B2082DDCDB70BD70B50024002516E0B6
:100650006006040E40206F490860FFF7A3FF6D4855
:100660000838006800F0800008B1601CC4B2402067
:100670006849091D0860FFF795FF681CC5B2082D81
:10068000E6DB204670BD10B5802062490860FFF7A8
:1006900089FF40205F490860FFF784FF5D48083804
:1006A000006800F0800008B1012400E00024402030
:1006B0005849091D0860FFF775FF204610BD10B5A9
:1006C00080205449091D0860FFF76CFF4020514904
:1006D0000860FFF767FF40204E49091D0860FFF7DB
:1006E00061FF80204B49086010BD10B5802049494A
:1006F0000860FFF757FF402046490860FFF752FFA8
:1007000040204449091D0860FFF74CFF10BD08B5A3
:100710000121082001F020FAC020ADF800000320DC
:100720008DF8020014208DF803006946394810380E
:1007300000F056FFFFF752FF08BD70B50446FFF703
:1007400038FF2046FFF758FFFFF79DFF0546FFF7EC
:1007500045FF284670BD10B50446FFF72AFF462026
:10076000FFF74AFFFFF78FFF012800D110BD204699
:10077000FFF742FFFFF787FF012801D10220F5E7CD
:10078000FFF72CFF0020F1E710B50024FFF711FF61
:100790004720FFF731FFFFF776FF012801D1002046
:1007A00010BDFFF751FF0446FFF789FFFFF74CFF2D
:1007B00000EB042084B2FFF798FFFFF70FFF2046FD
:1007C000EEE710B50120FFF7C6FF10BD10B5002001
:1007D000FFF7C1FF10BD10B50720FFF7BCFF10BD2C
:1007E00010B5FFF794FFFFF7ECFF1020FFF7B3FF02
:1007F00010BD70B5FFF7C8FF064603F0B5FF05460C
:10080000054903F0EFFE04464FF07E5103F0C0FFB0
:1008100070BD0000100C0140CDCC8C3F10B56A4873
:10082000006820F00F00684908600846006840F042
:1008300003000860002065490860142000F091FC66
:1008400001206349C1F8A0011E2000F066FC10BD24
:1008500010B500245C48006820F00F005A49086079
:100860000846006840F00800086004E0601CC4B25C
:10087000012000F052FC55488038006808B1642C13
:10088000F4DB642C01DB012010BD002404E0601CBB
:10089000C4B2012000F041FC4C488038006808B91F
:1008A000642CF4DB642C01DB0120EDE70020EBE796
:1008B00010B5002404E0601CC4B2012000F02DFC3F
:1008C00042488038006808B1642CF4DB002404E05E
:1008D000601CC4B2012000F020FC3C488038006855
:1008E00008B9642CF4DB282000F017FC3748803866
:1008F000006808B1012010BD0020FCE770B500249D
:10090000002506E06006040EFFF7D2FF0443681CD2
:10091000C5B2082DF6DB204670BD2DE9FC41054629
:100920000E4617469846FFF779FFFFF791FF30BB59
:10093000002405E0FFF7E2FF0DF80400601CC4B2DC
:10094000052CF7DB9DF800009DF8011008449DF888
:10095000021008449DF8031008449DF804108842D2
:1009600010D19DF8000028709DF8010030709DF8AE
:10097000020038709DF8030088F8000002E00120B2
:10098000BDE8FC810020FBE708B50121042001F04F
:10099000E3F84FF48070ADF8000010208DF80300EC
:1009A00003208DF8020069460748001F00F018FE7A
:1009B0004FF480710448001F00F0BFFEFFF72EFFC8
:1009C000FFF746FF08BD000004080140A0012142D6
:1009D0000000214210B52021FB4800F0AEFE80212E
:1009E000F94800F0ACFE8021F74800F0A6FE10BDEB
:1009F00010B52021F44800F0A0FE2021F24800F0BC
:100A00009EFE10BD70B5044600251BE02021EE4877
:100A100000F095FE04F0800020B18021EA4800F04B
:100A20008CFE03E08021E84800F089FE2021E648A2
:100A300000F083FE2021E44800F081FE6006040EF1
:100A4000681CC5B2082DE1DB70BD10B58021DE4801
:100A500000F073FE2021DC4800F06FFE8021DA48B0
:100A600000F06DFE2021D84800F069FE10BD70B581
:100A700005460C46FFF7E9FF7820FFF7C3FFFFF7B5
:100A8000B7FF1CB14020FFF7BDFF02E00020FFF7D9
:100A9000B9FFFFF7ADFF2846FFF7B4FFFFF7A8FF48
:100AA000FFF798FF70BD10B504461CB90021A620C1
:100AB000FFF7DDFF012C03D10021A720FFF7D7FFAF
:100AC00010BD10B504463CB90021C820FFF7CFFF88
:100AD0000021A120FFF7CBFF012C07D10021C0206E
:100AE000FFF7C5FF0021A020FFF7C1FF10BD10B523
:100AF00000218D20FFF7BBFF00211420FFF7B7FF77
:100B00000021AF20FFF7B3FF10BD10B500218D20ED
:100B1000FFF7ADFF00211020FFF7A9FF0021AF2054
:100B2000FFF7A5FF10BD70B500241CE004F1B00173
:100B3000C8B20021FFF79BFF00210846FFF797FF8F
:100B400000211020FFF793FF002508E09F4901EBEB
:100B5000C501085D0121FFF78AFF681CC5B2802D21
:100B6000F4DB601CC4B2082CE0DB70BD70B500245F
:100B70000CE0002506E00020944901EBC501085572
:100B8000681CC5B2802DF6DB601CC4B2082CF0DBFB
:100B9000FFF7C9FF70BD70B50A46CE1701EB567658
:100BA000C6F3C703CE1701EB5676F610A1EBC606C7
:100BB000F4B20122A240D5B2844A02EBC002D25C58
:100BC0002A43824E06EBC006F25470BD70B50B4648
:100BD000CE1701EB5676C6F3C702CE1701EB567659
:100BE000F610A1EBC606F4B20123A340DDB2774BA9
:100BF00003EBC0039B5CDB43744E06EBC006B354AF
:100C0000724B03EBC0039B5C2B43704E06EBC0069C
:100C1000B3546E4B03EBC0039B5CDB436B4E06EBA4
:100C2000C006B35470BD2DE9F84F05460E46174671
:100C30009846002D0ADB802F08DC002E06DBB8F179
:100C4000400F03DCBD4201DC464501DDBDE8F88F05
:100C5000BD420DD1002406E03019C1B22846FFF78D
:100C60009AFF601CC4B2A8EB0600A042F4DC30E09E
:100C700046450CD1002406E02919C8B23146FFF7D9
:100C80008AFF601CC4B2781BA042F5DC21E0A8EB0F
:100C9000060000F0FF0A781B00F0FF0B0AEB8A0049
:100CA000400090FBFBF000F0FF0900240EE004FB85
:100CB00009F00A2190FBF1F03044C0B229190090EC
:100CC000C8B20099FFF767FF601CC4B2781BA0424E
:100CD000EDDC00BFBAE72DE9F04306460F4690462B
:100CE000002544463BE03A1BD1B27219D0B2FFF75F
:100CF00052FF3A1BD1B2721BD0B2FFF74CFF3A1928
:100D0000D1B2721BD0B2FFF746FF3A19D1B27219B5
:100D1000D0B2FFF740FF7A19D1B23219D0B2FFF743
:100D20003AFF7A1BD1B23219D0B2FFF734FF7A1BE7
:100D3000D1B2321BD0B2FFF72EFF7A19D1B2321BDB
:100D4000D0B2FFF728FF6D1C05FB05F004FB040083
:100D500008FB1809B9F1000F01DD641E6D1E60006B
:100D6000604308FB08F18842BDDABDE8F0832DE955
:100D7000FF4F81B080460E461C4600962046E31782
:100D800004EB5373DB1021464FEAE47C04EB5C7CFC
:100D90004FEAEC0CA4EBCC0CBCF1000F02D04FF0EE
:100DA000010C01E04FF0000C6344224604EBD27CBE
:100DB0004FEA6C0C03FB0CF303F0FF0B0398203895
:100DC000C7B200254CE000000008014034000020BC
:100DD0000C2C07D107EB4700BF4901EB800010F84E
:100DE00005A014E0102C05D1BC4800EB071010F84A
:100DF00005A00CE0182C07D107EBC700B84901EBA0
:100E0000800010F805A002E005B0BDE8F08F4FF0BB
:100E100000091FE00AF0800020B131464046FFF78C
:100E2000BAFE03E031464046FFF7D0FE4FEA4A6083
:100E30004FEA106A701CC6B20098301AA04205D161
:100E4000009E08F1010000F0FF0806E009F1010032
:100E500000F0FF09B9F1080FDCDB00BF681CC5B268
:100E60005D45B5DB00BFCFE7F0B506460F4614463B
:100E70001D4613E022782B4639463046FFF777FFB0
:100E8000284605EBD07106EB6101CEB2C5F18000BA
:100E9000B04202DA0026B81CC7B2641C20782028B1
:100EA00002DB20787E28E5DDF0BD10B5024601208A
:100EB00000E050430B1EA1F10104E1B2F9D110BDD5
:100EC0002DE9F04F06468A4691461F46099C0025AB
:100ED0002CE0781B401EC1B20A20FFF7E6FFB9FBE9
:100EE000F0F00A21B0FBF1F201FB1208B8F1000F9B
:100EF0000CD1A34604EBDB71491001FB0561C8B2BC
:100F0000234630225146FFF732FF0DE0A34604EBA3
:100F1000DB71491001FB0561C8B208F13001CAB2AA
:100F200023465146FFF723FF681CC5B2BD42D0DB04
:100F3000BDE8F08F70B504460D4605F1B001C8B2AA
:100F40000021FFF794FD102141EA14100021FFF762
:100F50008EFD04F00F0141F001000021FFF787FD35
:100F600070BD2DE9F05F05460E4617469846DDF840
:100F700028B04FF00009CA460024E11704EB517174
:100F8000C910A4EBC10101B901E0601CC4B2344630
:100F900014E021462846FFF7CDFFAA460AE01BF8D9
:100FA00009000121FFF763FD09F101090AF10100C0
:100FB00000F0FF0ABA45F2DB601CC4B24445E8DB2E
:100FC000BDE8F09F08B50121042000F0C5FDB02068
:100FD000ADF8000010208DF8030003208DF802000A
:100FE0006946404800F0FCFAB0213E4800F0A5FBFD
:100FF0000021AE20FFF73BFD00210846FFF737FD3B
:1010000000211020FFF733FD00214020FFF72FFDC6
:1010100000218120FFF72BFD0021CF20FFF727FDC6
:101020000021A120FFF723FD0021C820FFF71FFDAD
:101030000021A620FFF71BFD0021A820FFF717FDC8
:1010400000213F20FFF713FD0021D320FFF70FFD04
:1010500000210846FFF70BFD0021D520FFF707FD13
:1010600000218020FFF703FD0021D920FFF7FFFCBE
:101070000021F120FFF7FBFC0021DA20FFF7F7FC4D
:1010800000211220FFF7F3FC0021DB20FFF7EFFC2B
:1010900000214020FFF7EBFC00212020FFF7E7FCB8
:1010A00000210220FFF7E3FC00218D20FFF7DFFC89
:1010B00000211420FFF7DBFC0021A420FFF7D7FC60
:1010C0000021A620FFF7D3FC0021AF20FFF7CFFCC3
:1010D000FFF74CFD08BD00002C490008A04D00089A
:1010E000905300080008014010B56FF0040000F0B4
:1010F000EAFF2E4800682E49B0FBF1F02D49087038
:101100000846007800EB4001C1EBC0104FF6FF71BC
:1011100001EAC0002849088010BD0146254A12781E
:101120004A434FF0E0235A6100229A611A4612693D
:1011300042F001021A6100BF4FF0E022106900F096
:1011400001021AB100F48032002AF5D04FF0E022FB
:10115000126922F001024FF0E0231A6100229A6125
:1011600070470146144A12884A434FF0E0235A61FF
:1011700000229A611A46126942F001021A6100BF08
:101180004FF0E022106900F001021AB100F4803241
:10119000002AF5D04FF0E022126922F001024FF050
:1011A000E0231A6100229A617047000008000020C5
:1011B00000127A001C0000201E00002010B586B02E
:1011C00004460121042000F0C7FC0121880300F03F
:1011D000C3FC18208DF817004FF40070ADF8140010
:1011E00003208DF8160005A96B4800F0F9F90420DA
:1011F0008DF817000002ADF8140003208DF81600DA
:1012000005A9654800F0ECF901940020ADF8100044
:101210000C20ADF80E000020ADF80C00ADF80A006F
:10122000ADF8080001A95D4800F03DFD01215B48D3
:1012300000F0C5FD012240F22551584800F0CBFDD9
:1012400025208DF8000001208DF8030000208DF886
:10125000010002208DF80200684600F0EAFE06B0A8
:1012600010BD10B586B004460121042000F074FCC6
:101270000121480400F07DFC18208DF8170004209F
:10128000ADF8140003208DF8160005A9424800F0BF
:10129000A7F904208DF817000820ADF814000320EA
:1012A0008DF8160005A93C4800F09AF90194002039
:1012B000ADF810000C20ADF80E000020ADF80C00C9
:1012C000ADF80A00ADF8080001A9354800F0EBFCC4
:1012D0000121334800F073FD012240F225513048CE
:1012E00000F079FD26208DF8000001208DF8030024
:1012F00000208DF801008DF80200684600F099FE8C
:1013000006B010BD2DE9F04107460C4615460026F3
:101310000DE014F8011B384600F0BEFD00BF40216F
:10132000384600F027FE0028F9D0701C86B2AE4285
:10133000EFDBBDE8F0810FB430B5CBB0054601ACB2
:1013400050A800904FF4947101A8009B4F9A01F0AF
:10135000E7FD002000900BE014F8011B284600F088
:101360009BFD00BF4021284600F004FE0028F9D074
:1013700020780028F0D14BB030BC5DF814FB10B5DC
:1013800040F22551054800F00BFE18B1202103481A
:1013900000F0FDFD10BD00000008014000380140D4
:1013A000004400407FB505460C460121084600F088
:1013B000E0FBADF80850ADF804400020ADF80A009D
:1013C000ADF8060001A94FF0804000F06FFF012248
:1013D0001146900701F0E1FA1C208DF80000002072
:1013E0008DF8010003208DF8020001208DF8030024
:1013F000684600F01EFE0121880701F0B3FA7FBDA8
:1014000070B50121880701F076FD00283CD001214C
:10141000880701F081FD1D4803781D4802781DA151
:10142000204801F097FD10231E4A00210846FFF7CF
:101430001BFD1D4803781D4802781DA1194801F0C5
:1014400089FD1023174A19460020FFF70DFD1C489F
:10145000006803F09BF8044622460B4619A1114888
:1014600001F078FD10230F4A20210020FFF7FCFC3B
:1014700018A10C4801F06EFD10230A4A30212020EB
:10148000FFF7F2FCFFF74FFB70BD000003000020E8
:101490000200002054656D703A25642E256420A159
:1014A000E3430000B40400200100002000000020FD
:1014B00048756D3A25642E2564202525000000001E
:1014C000040000204C696768743A25312E66206C50
:1014D000780000004E6173682D69776E6C00000023
:1014E0000948804709480047FEE7FEE7FEE7FEE7B8
:1014F000FEE7FEE7FEE7FEE7FEE7FEE704480549F4
:10150000054A064B704700005304000831010008EB
:1015100058050020580B00205807002058070020CD
:1015200010B50446CC48844208D10121042000F0C3
:101530002DFB0021042000F029FB46E0C74884422F
:1015400008D10121082000F021FB0021082000F033
:101550001DFB3AE0C248844208D10121102000F06E
:1015600015FB0021102000F011FB2EE0BD48844245
:1015700008D10121202000F009FB0021202000F0EB
:1015800005FB22E0B848844208D10121402000F048
:10159000FDFA0021402000F0F9FA16E0B348844239
:1015A00008D10121802000F0F1FA0021802000F014
:1015B000EDFA0AE0AE48844207D10121801500F01F
:1015C000E5FA0021A01500F0E1FA10BD10B50121E7
:1015D000084600F0DBFA0021012000F0D7FA10BD28
:1015E0002DE9F041024600250026002000230024BA
:1015F000002791F803C00CF00F0591F803C00CF020
:10160000100CBCF1000F03D091F802C04CEA0505A4
:1016100091F800C0BCF1000F31D0146800202BE01D
:101620004FF0010C0CFA00F3B1F800C00CEA03060D
:101630009E4220D183004FF00F0C0CFA03F7BC43FD
:1016400005FA03FC4CEA040491F803C0BCF1280F2E
:1016500006D14FF0010C0CFA00FCC2F814C00AE0ED
:1016600091F803C0BCF1480F05D14FF0010C0CFA02
:1016700000FCC2F810C0401C0828D1D31460B1F897
:1016800000C0BCF1FF0F34DD546800202EE000F1F3
:10169000080C4FF0010808FA0CF3B1F800C00CEA8E
:1016A00003069E4221D183004FF00F0C0CFA03F782
:1016B000BC4305FA03FC4CEA040491F803C0BCF1F6
:1016C000280F05D100F1080C08FA0CF8C2F81480B4
:1016D00091F803C0BCF1480F07D100F1080C4FF09E
:1016E000010808FA0CF8C2F81080401C0828CED374
:1016F0005460BDE8F0814FF6FF71018002218170D6
:101700000421C17070470246002093680B400BB162
:10171000012000E0002070470146886880B27047D1
:1017200002460020D3680B400BB1012000E00020EE
:1017300070470146C86880B27047016170474161D7
:1017400070470AB1016100E041617047C1607047B4
:101750004FF480320A4382618161826182698269C9
:10176000704702460020434B18684FF680731840BC
:1017700040EA021008433F4B186070473E49C86179
:101780007047F0B50A46002300240021002500F030
:101790000046B6F1004F02D1364EF16901E0354EF8
:1017A0007168C0F3034583B200F44016B6F5401FDC
:1017B00008D121F070612F4E766826F070662D4FAB
:1017C0007E6012E000F48016B6F5801F06D1032675
:1017D00006FA05F4A14341F0706106E0460D3601BA
:1017E00003FA06F6B14341F0706122B1460D3601AD
:1017F00003FA06F6314300F00046B6F1004F02D17D
:101800001C4EF16101E01B4E7160F0BD30B500224D
:101810008B071C0F0F2303FA04F2164B08338C10AE
:1018200053F824309343134C08348D1044F825307A
:1018300023468C1053F824308C07240F00FA04F44C
:1018400023430C4C08348D1044F8253030BD0A4930
:10185000DC3108607047000000080140000C0140C6
:10186000001001400014014000180140001C01401C
:10187000002001400000014000002042DF480068D5
:1018800040F00100DD49086008464068DC49084036
:10189000DA49486008460068DA490840D7490860D4
:1018A0000846006820F4802008600846406820F45C
:1018B000FE0048604FF41F0088607047CF490968F8
:1018C00021F48031CD4A11601146096821F480214C
:1018D0001160B0F5803F03D0B0F5802F0ED106E047
:1018E000C649096841F48031C44A116007E0C34920
:1018F000096841F4A021C14A116000E000BF00BFA7
:10190000704710B501460022002300204A11012A29
:1019100002D1BA4C236806E0022A02D1B74C236AEE
:1019200001E0B64C636A01F01F02012494401C40A0
:101930000CB1012000E0002010BD38B5002000905F
:101940000024002500BF3120FFF7DBFF054600988B
:10195000401C00900098B0F5A06F01D0002DF2D08F
:101960003120FFF7CEFF08B1012400E0002420461B
:1019700038BD01460020A14A106820F0F80040EA76
:10198000C10010607047A0490860704702460020FF
:101990009A4B586820F47C1042EA01031843974B95
:1019A0005860704798490866704701460020934A7E
:1019B000506820F003000843506070478F4840682B
:1019C00000F00C007047014600208C4A506820F05F
:1019D000F00008435060704701460020874A506875
:1019E00020F4E06008435060704701460020834ABD
:1019F000506820F4605040EAC1005060704729B13F
:101A00007E4A527A02437D4B5A7204E07B4A527AF4
:101A100082437A4B5A7270477B49D83108607047CD
:101A200001460020754A506820F440400843506049
:101A300070470021714A20321170704A82F82010DC
:101A4000012802D004280AD104E001216B4A203287
:101A5000117005E00521694A2032117000E000BFD5
:101A600000BF70476949086070476449096A0143CB
:101A7000624A11627047654944390860704730B561
:101A800000210022002400235C4D6D6805F00C014C
:101A900021B1042905D0082923D105E05C4D05605A
:101AA00022E05B4D05601FE0544D6D6805F4701237
:101AB000524D6D6805F48034022505EB92421CB945
:101AC000544D554305600BE04C4D6D6805F40035F1
:101AD0001DB1504D5543056002E04D4D5543056025
:101AE00002E04B4D056000BF00BF444D6D6805F03E
:101AF000F0010909484D6B5C0568DD4045603F4DCC
:101B00006D6805F4E061090A434D6B5C4568DD4092
:101B100085603A4D6D6805F46051C90A3E4D6B5CB5
:101B20004568DD40C560354D6D6805F44041890B61
:101B30003A4D6B5CC568B5FBF3F5056130BD29B165
:101B40002E4A526902432D4B5A6104E02B4A5269D6
:101B500082432A4B5A61704729B1284A926902434D
:101B6000264B9A6104E0254A92698243234B9A618D
:101B7000704729B1214AD2690243204BDA6104E05F
:101B80001E4AD26982431D4BDA61704729B11B4A54
:101B9000D2680243194BDA6004E0184AD2688243E3
:101BA000164BDA60704729B1144A12690243134B8D
:101BB0001A6104E0114A12698243104B1A6170479E
:101BC00012494039086070470F49C86470470B4993
:101BD000C87170470948406A40F080700749486200
:101BE000704701460020054A92680A400AB1012068
:101BF00000E00020704701498872704700100240E1
:101C00000000FFF8FFFFF6FE00004242800442425F
:101C100000127A0000093D00200000203000002062
:101C200010B50446FB48844209D101218803FFF71F
:101C3000ADFF00214FF48040FFF7A8FF32E0F648E7
:101C4000844209D101214804FFF7ADFF00214FF480
:101C50000030FFF7A8FF25E0F048844209D10121B8
:101C60008804FFF7A0FF00214FF48020FFF79BFFBF
:101C700018E0EB48844209D10121C804FFF793FF23
:101C800000214FF40020FFF78EFF0BE0E54884426F
:101C900008D101210805FFF786FF00214FF48010CD
:101CA000FFF781FF10BD2DE9F04786B005460E46CF
:101CB0000024A24600BFA1460027B08900B100BFA2
:101CC0002F462C8A4CF6FF700440F08804432C8287
:101CD000AC894EF6F3100440B0883189084371890D
:101CE00008430443AC81AC8A4FF6FF400440B089FE
:101CF0000443AC8201A8FFF7C2FEC648874202D166
:101D0000DDF810A001E0DDF80CA0A88900F4004087
:101D100040B10AEBCA0000EB0A1031684900B0FB81
:101D2000F1F807E00AEBCA0000EB0A1031688900FD
:101D3000B0FBF1F86420B8FBF0F004012009642145
:101D400001FB1089A88900F4004040B1322000EB6B
:101D5000C900B0FBF1F000F00700044308E03220B6
:101D600000EB09106421B0FBF1F000F00F00044318
:101D70002C8106B0BDE8F0874FF4165101600021B8
:101D80008180C18001810C214181002181817047C6
:101D900010B502460020108A4FF2FF0318400B884E
:101DA0004C8823438C882343CC88234318431082D8
:101DB00010BD0021018041808180C180704721B128
:101DC000828942F40052828104E082894DF6FF73D9
:101DD0001A4082817047F0B5034600240026002592
:101DE000002040F66A17B94200D100BF1846C1F37F
:101DF000421401F01F06012707FA06F5012C01D154
:101E00000C3004E0022C01D1103000E014301AB183
:101E100007682F43076002E00768AF430760F0BD23
:101E20001AB1838A0B43838202E0838A8B438382C5
:101E30007047028A4FF6F0731A400282028A0A4300
:101E40000282704782894FF2FF731A408281828931
:101E50000A438281704721B1828942F00202828165
:101E600004E082894FF6FD731A4082817047028A2E
:101E70004FF6DF731A400282028A0A4302827047D9
:101E800021B1028A42F48042028204E0028A4BF6C7
:101E9000FF731A4002827047C1F3080282807047C4
:101EA00001468888C0F308007047818941F001012C
:101EB00081817047028BD2B20283028B42EA0122F7
:101EC00002837047028B02F47F420283028B0A4333
:101ED0000283704721B1828A42F02002828204E0AC
:101EE000828A4FF6DF731A408282704721B1828A5C
:101EF00042F01002828204E0828A4FF6EF731A40A9
:101F00008282704721B1828A42F00802828204E014
:101F1000828A4FF6F7731A408282704721B1828914
:101F200042F40042828103E08289C2F30E02828180
:101F3000704721B1828A42F40062828204E0828A80
:101F40004FF2FF731A4082827047828A4FF6FB730A
:101F50001A408282828A0A438282704721B1828A31
:101F600042F00202828204E0828A4FF6FD731A4038
:101F70008282704702460020B1F5007F00D100BF89
:101F800013880B400BB1012000E00020704701F4E2
:101F90000072B2F5007F00D100BFCA4302807047D3
:101FA00070B50246002400230025002040F66A1682
:101FB000B14200D100BFC1F3421501F01F03012659
:101FC00006FA03F3012D02D19689334006E0022D73
:101FD00002D1168A334001E0968A33400C12012662
:101FE00006FA04F41688344013B10CB1012000E065
:101FF000002070BD10B50022002340F66A14A142F3
:1020000000D100BF0A1201249440A3B2DC43048033
:1020100010BD00000038014000440040004800406E
:10202000004C00400050004031490143314A1160EA
:10203000704770B5002100230F22C47804B32D4CE3
:10204000246804F4E064C4F5E064210AC1F10403E7
:10205000CA40447804FA03F184781440214309010A
:10206000254C0678A155047804F01F050124AC40E6
:1020700005786D11AD0005F1E025C5F8004109E0D6
:10208000047804F01F050124AC401C4D067876113D
:1020900045F8264070BD1A4A0A400243154B1B1FE3
:1020A0001A60704739B1134A121D12680243114B6E
:1020B0001B1D1A6006E00F4A121D126882430D4B69
:1020C0001B1D1A607047042808D14FF0E0210969F0
:1020D00041F004014FF0E022116107E04FF0E021F0
:1020E000096921F004014FF0E022116170470000FE
:1020F0000000FA050CED00E000E400E080E100E003
:1021000080FFFF1F10B50446FE48844208D101211C
:10211000C014FFF73BFD0021E014FFF737FDC4E0DA
:10212000B4F1804F08D101210846FFF73CFD0021A2
:102130000120FFF738FDB8E0F348844208D10121BF
:102140000220FFF730FD00210220FFF72CFDACE05C
:10215000EE48844208D101210420FFF724FD00212C
:102160000420FFF720FDA0E0E948844208D10121C6
:102170000820FFF718FD00210820FFF714FD94E068
:10218000E448844208D101211020FFF70CFD002112
:102190001020FFF708FD88E0DF48844208D10121C4
:1021A0002020FFF700FD00212020FFF7FCFC7CE051
:1021B000DA48844208D101214014FFF7E7FC0021EE
:1021C0006014FFF7E3FC70E0D548844209D1012197
:1021D000C804FFF7DBFC00214FF40020FFF7D6FC1A
:1021E00063E0D048844209D101210805FFF7CEFC05
:1021F00000214FF48010FFF7C9FC56E0CA48844222
:1022000009D101214805FFF7C1FC00214FF400105E
:10221000FFF7BCFC49E0C548844208D101214020B9
:10222000FFF7C1FC00214020FFF7BDFC3DE0C048A6
:10223000844208D101218020FFF7B5FC00218020D5
:10224000FFF7B1FC31E0BB48844208D10121801581
:10225000FFF7A9FC0021A015FFF7A5FC25E0B64873
:10226000844209D101210804FFF790FC00214FF4BA
:102270008030FFF78BFC18E0B048844209D101217F
:102280004804FFF783FC00214FF40030FFF77EFC89
:102290000BE0AB48844208D101218804FFF776FCAB
:1022A00000214FF48020FFF771FC10BD002202884E
:1022B000944B98420ED0994B98420BD0B0F1804F7E
:1022C00008D0914B984205D0904B984202D0904B49
:1022D000984204D14FF68F731A404B881A438D4BA6
:1022E000984207D08C4B984204D04FF6FF431A40D7
:1022F000CB881A4302808B8883850B880385814BAA
:1023000098420BD0854B984208D08B4B984205D011
:102310008A4B984202D08A4B984201D10B7A0386AD
:1023200001238382704770B5002400220023058CAE
:102330004FF6FE7635400584028C8388048B4FF679
:102340008F752C40B51E2C400D882C43751E2A40DD
:102350000D892A434D882A436A4DA8420BD06F4D00
:10236000A84208D0744DA84205D0744DA84202D0AE
:10237000734DA84213D14FF6F7752A404D892A4371
:102380004FF6FB752A408D882A434FF6FF652B4098
:102390004FF6FF552B408D892B43CD892B438380EE
:1023A0000483CD888586028470BD70B50024002228
:1023B0000023058C4FF6EF7635400584028C838828
:1023C000048B48F6FF752C404FF6FF452C400D88D6
:1023D0004FF6FF7606EA05252C434FF6DF752A40B7
:1023E0000D8906EA05152A434D8806EA05152A4394
:1023F000444DA84202D0494DA8421DD14FF67F75E9
:102400002A404D894FF6FF7606EA05152A434FF616
:10241000BF752A408D8806EA05152A434FF6FF3519
:102420002B404FF2FF752B408D8906EA85052B4323
:10243000CD8906EA85052B4383800483CD880587F3
:10244000028470BD70B5002400220023058C4FF675
:10245000FF6635400584028C8388848B4FF68F7528
:102460002C404FF6FC752C400D882C434FF6FF5541
:102470002A400D894FF6FF7606EA05252A434D8846
:1024800006EA05252A431F4DA84202D0234DA84243
:102490001DD14FF2FF752A404D894FF6FF7606EAAF
:1024A00005252A434FF6FF352A408D8806EA052583
:1024B0002A434EF6FF752B404DF6FF752B408D8954
:1024C00006EA05152B43CD8906EA05152B438380C3
:1024D0008483CD888587028470BD70B50022002377
:1024E0000024058C4EF6FF7635400584038C8488E5
:1024F000828B48F6FF752A404FF6FF452A400D882B
:1025000020E00000002C01400004004000080040D2
:10251000000C004000100040001400400034014056
:10252000004C0140005001400054014000180040A0
:10253000001C0040002000400040014000440140D9
:10254000004801404FF6FF7606EA05252A434DF67E
:10255000FF752B400D8906EA05352B434D8806EAA9
:1025600005352B43FA4DA84202D0FA4DA84208D1B6
:102570004BF6FF752C408D894FF6FF7606EA8515E0
:102580002C4384808283CD88A0F84050038470BDA2
:10259000828B4FF2FF331A408283828B4FF6FF7398
:1025A00003EA01231A4382837047F0B50C461546AF
:1025B000002200210026078C4EF6FF7C07EA0C075C
:1025C0000784828B018C4FF6FF7707EA043640F6CA
:1025D000FF473A404FF6FF7707EA05273A434FF6A1
:1025E000FF7707EA03373A43D94FB8420ED0D94FA5
:1025F000B8420BD0B0F1804F08D0D74FB84205D0C9
:10260000D64FB84202D0D64FB84206D14DF6FF772A
:10261000394046F48057394305E047F6FF573940C3
:1026200044F48057394382830184F0BD828B4FF696
:10263000F3731A408283828B0A4382837047F0B51A
:102640000C461546002200210026078C4FF6FF6C31
:1026500007EA0C070784828B018C4FF6FF7707EAA5
:1026600004264FF60C773A404FF6FF7707EA031738
:102670002F433A43B64FB8420ED0B64FB8420BD0B4
:10268000B0F1804F08D0B44FB84205D0B34FB84234
:1026900002D0B34FB84206D14FF6FF57394046F447
:1026A0008077394305E04FF2FF57394044F4807793
:1026B000394382830184F0BD028B4FF2FF331A400D
:1026C0000283028B4FF6FF7303EA01231A4302834E
:1026D0007047F0B50C461546002200210026078CF5
:1026E0004FF6EF7C07EA0C070784028B018C4FF64C
:1026F000FF7707EA041640F6FF473A404FF6FF77A8
:1027000007EA03373A434FF6FF7707EA05273A43CC
:102710008F4FB8420ED08F4FB8420BD0B0F1804FE0
:1027200008D08D4FB84205D08C4FB84202D08C4FA4
:10273000B84206D14FF6DF77394046F010073943EB
:1027400005E04FF65F77394044F0100739430283C4
:102750000184F0BD028B4FF6F3731A400283028BA3
:102760000A4302837047F0B50C461546002200214B
:10277000068C4FF6FE773E400684028B018C4FF6A6
:102780000C7632407E1C06EA03162E433243704E0E
:10279000B0420ED06F4EB0420BD0B0F1804F08D097
:1027A0006D4EB04205D06D4EB04202D06C4EB0427C
:1027B00006D14FF6FD76314044F00106314305E085
:1027C0004FF6F576314044F001063143028301842F
:1027D000F0BD70B505460C465D4885420ED05D489B
:1027E00085420BD0B5F1804F08D05B48854205D0BB
:1027F0005A48854202D05A48854200D100E000BFC5
:10280000208850B92389A28861882846FFF7ABFF4A
:10281000E1882846FFF79EFF25E0208804280AD19A
:102820002389A28861882846FFF753FFE18828465C
:10283000FFF742FF17E0208808280AD12389A288E1
:1028400061882846FFF7FBFEE1882846FFF7EEFE89
:1028500009E02389A28861882846FFF7A6FEE1885F
:102860002846FFF795FE70BD2DE9F04105460C4660
:1028700000260127608808B9022600E00026A0880B
:10288000012801D1022700E001272088A0B923896F
:10289000A28861882846FFF766FFE1882846FFF78F
:1028A00059FF23893A4631462846FFF712FFE1884F
:1028B0002846FFF701FF13E02389A2886188284694
:1028C000FFF707FFE1882846FFF7F6FE23893A461F
:1028D00031462846FFF747FFE1882846FFF73AFFD1
:1028E000BDE8F0810A884B881A438B881A43CB884D
:1028F0001A430B891A434B891A438B891A43A0F850
:10290000442070474FF6FF71818000210180C18013
:102910004180017270470021018041808180C18027
:10292000018141818181C181704700210180418005
:10293000012181800021C180018170470021018037
:1029400041808180C1800181418181817047000087
:10295000002C014000340140000400400008004009
:10296000000C004021B1028842F00102028004E024
:1029700002884FF6FE731A400280704731B1B0F8FA
:10298000442042F40042A0F8442005E0B0F844207E
:10299000C2F30E02A0F8442070471AB183890B439A
:1029A000838102E083898B438381704781827047F2
:1029B00041EA0203A0F8483070471AB183890B43FB
:1029C000838102E083898B438381704701894FF6BD
:1029D000F8721140018170470A46002101894FF6C3
:1029E0008F73194011430181704730B504460D467D
:1029F00029462046FFF7F0FF208940F0070020819C
:102A000030BD2DE9F04104460D4616461F46602DA7
:102A100006D13B46012231462046FFF75AFE05E02B
:102A20003B46012231462046FFF79DFE29462046BF
:102A3000FFF7D2FF208940F007002081BDE8F08138
:102A400030B50C4600210189C9B24FF6FF7505EA81
:102A50000325154325432943018130BD2DE9F0416C
:102A600005460E4617469846002443463A463146E8
:102A70002846FFF7E5FF2C894FF6F870044044F034
:102A800007044FF68F70044044F070042C81BDE8B9
:102A9000F081F0B504460D4616461F463B463246C9
:102AA00029462046FFF7CCFF208940F48040208152
:102AB000F0BD0185828270470A46002101884FF6E9
:102AC0008F731940114301807047F0B50C461546CD
:102AD0001E460021002200230189028B038C4FF641
:102AE000F877394021434FF6FC473A4040F201174E
:102AF0003A434FF6DD773B404FF6FF7707EA06177C
:102B00002F433B43018102830384F0BD0A46002129
:102B1000018B4FF68F7319401143018370470A46AA
:102B20000021018B48F6FF7319404FF6FF7303EA4B
:102B300002231943018370470A460021818B4FF617
:102B40008F7319401143818370470A460021818B9E
:102B500048F6FF7319404FF6FF7303EA0223194347
:102B60008183704721B1028842F08002028004E034
:102B700002884FF67F731A400280704721B1828825
:102B800042F00402828004E082884FF6FB731A4010
:102B90008280704721B1828842F00802828004E07E
:102BA00082884FF6F7731A408280704721B182887D
:102BB00042F00102828004E082884FF6FE731A40E0
:102BC000828070470A460021018B4FF6F773194047
:102BD0001143018370470A460021018B4FF2FF73B6
:102BE00019404FF6FF7303EA02231943018370472C
:102BF0000A460021818B4FF6F773194011438183F8
:102C000070470A460021818B4FF2FF7319404FF63F
:102C1000FF7303EA02231943818370470A460021A8
:102C2000018B4FF6FB7319401143018370470A462D
:102C30000021018B4FF6FF3319404FF6FF7303EA73
:102C400002231943018370470A460021818B4FF606
:102C5000FB7319401143818370470A460021818B21
:102C60004FF6FF3319404FF6FF7303EA022319436F
:102C7000818370470A460021018B4FF67F7319400C
:102C80001143018370470A460021018BC1F30E01F5
:102C90004FF6FF7303EA02231943018370470A4684
:102CA0000021818B4FF67F73194011438183704758
:102CB0000A460021818BC1F30E014FF6FF7303EA30
:102CC00002231943818370470A460021018C4FF685
:102CD000FD7319401143018470470A460021018C9D
:102CE0004FF6F77319401143018470470A460021DB
:102CF000018C4FF6DF7319404FF6FF7303EA02139E
:102D00001943018470470A460021018C4FF67F73F6
:102D100019404FF6FF7303EA021319430184704709
:102D20000A460021018C4FF6FF5319404FF6FF73FE
:102D300003EA02231943018470470A460021018CEB
:102D40004FF2FF7319404FF6FF7303EA0223194352
:102D5000018470470A460021018C4DF6FF7319402B
:102D60004FF6FF7303EA023319430184704730B50D
:102D7000002301248C40A3B2048C9C430484048C63
:102D800002FA01F5ADB22C43048430BD30B5002306
:102D900004248C40A3B2048C9C430484048C02FA67
:102DA00001F5ADB22C43048430BD70B5034600205C
:102DB00000241846183001258D40ACB21D8CA54367
:102DC0001D8409B1082909D100EB6100056825F0CF
:102DD000700505600568154305600EE00D1FC5F31D
:102DE0004E052844056825F4E045056005684FF662
:102DF000FF7606EA02263543056070BD21B10288E0
:102E000042F00202028004E002884FF6FD731A408D
:102E10000280704721B1028842F00402028004E07F
:102E200002884FF6FB731A400280704721B18288F6
:102E300042F08002828004E082884FF67F731A405D
:102E40008280704702884FF6F7731A40028002882A
:102E50000A430280704782884FF68F731A4082803F
:102E600082880A438280704702894FF6F8731A40BD
:102E7000028102890A430281704702894FF67F73FB
:102E80001A40028102890A43028170478184704797
:102E900081857047818670470187704781877047B9
:102EA000A0F84010704702884FF6FF431A40028096
:102EB00002880A43028070470146888E70470146A7
:102EC000088F70470146888F70470146B1F840006F
:102ED00070470146888C70470146088D704702464E
:102EE0000020138A0B400BB1012000E00020704746
:102EF000CA430282704730B50246002000230024F6
:102F0000158A05EA0103958905EA010413B10CB19C
:102F1000012000E0002030BDCA430282704700005B
:102F20007CB51D4616460C00009001D02044401E82
:102F3000074B7B442A4669460190304600F007FC67
:102F400005461CB10020694600F014FC28467CBDF3
:102F5000490800000FB41CB5084B06AA7B4469461B
:102F60000090059800F0F3FB04460020694600F04D
:102F700001FC20461CBC5DF814FB00001508000095
:102F800070B5044685690068C10601D5302600E0A9
:102F90002026C00707D070BDD4E9012130469047F4
:102FA000206A401C20626D1EF6D570BD70B50446C7
:102FB00085690078C00707D170BDD4E901212020C0
:102FC0009047206A401C20626D1EF6D570BD00003F
:102FD0002DE9F0410646002410687529314616A5F2
:102FE00010D000F0F8F8002802DA404213A507E0FC
:102FF00031688A0701D512A502E0490704D511A559
:10300000012401E000F0F0F800210A2206F1240773
:1030100009E0B0FBF2FCB0FBF2F302FB1C00303025
:1030200078541846491C0028F3D123462A463046D6
:10303000BDE8F04100F00AB9000000002D000000DA
:103040002B000000200000002DE9F05F89460446B7
:103050004FF0000ADFF874B1FB44C0F820A020460E
:10306000E1688847002874D0252806D0D4E90121DA
:103070009047206A401C2062F1E700265F46204608
:10308000E16888472028054607DB312D05D27819ED
:1030900010F8200C08B10643F1E7B00701D526F07F
:1030A0000406C4F81CA00027C4F818A02A2D09D0D3
:1030B000284601F032FA38B304EB8708303DC8F8EF
:1030C000185019E059F8041B204604EB870291615F
:1030D000E1688847012F054618D1E069002820DA09
:1030E00026F020061DE0D8F8180000EB800005EB64
:1030F00040003038C8F818002046E1688847054687
:1031000001F00BFA0028EED1012F0AD02E2D08D1A4
:103110002046E16888477F1C0546022F46F02006BE
:10312000C4DBA069002803DA404246F00106A06132
:10313000F00701D026F010066C2D0BD0682D09D0B9
:103140004C2D39D06A2D35D0742D35D07A2D33D011
:1031500016E038E0E1682F4620468847B842054629
:1031600009D16C2F26D04FF48060E16806432046D9
:103170008847054604E06C2F1AD04FF48070064350
:103180000DB3A5F14100192802D8203546F4006698
:103190004A462946204626604E46FDF703F880B190
:1031A00001280BD0F61D26F0070000F1080956E7AC
:1031B0004020E4E78020D8E70020D6E706F10409A4
:1031C0004DE7284652E7206ABDE8F09F90300000A6
:1031D00070477047704709684A0501D540B270478B
:1031E000C905FCD500B2704709684A0501D5C0B2CF
:1031F0007047C905FCD580B2704770B50C460546CE
:10320000012A05D02878800600D5EA69002302E06B
:10321000012305E05B1C934202D2E05C0028F9D157
:10322000A869E618C01AA861286A184428622846C6
:10323000FFF7A6FE04E0D5E9012114F8010B904741
:10324000B442F8D32846FFF7B1FE70BD2DE9F04730
:103250000D4699469246044600F124080168880606
:1032600004D5E06921F01001216000E00120A842AE
:1032700001DD471B00E00027A1697A1902EB090074
:10328000081AA0612078C00602D42046FFF778FE15
:10329000002608E0D4E901211AF806009047206AC8
:1032A000401C761C20624E45F4DB2078C0060AD50F
:1032B0002046FFF765FE06E0D4E901213020904763
:1032C000206A401C2062381EA7F10107F4DC07E0E9
:1032D000D4E9012118F805009047206A401C2062BB
:1032E000281EA5F10105F3DC2046FFF75FFE2078DC
:1032F000000602D50220BDE8F0870120FBE7116837
:103300000268006A530501D508700AE0D30501D5AB
:10331000088006E0130603D5C217C1E9000200E0E9
:1033200008600120704770472DE9FF4F0C461E468C
:103330004FF0FF378BB0D2E90001DDF860800A90D2
:103340008A46C1F30A5505B93D46002108464FF0AB
:103350000000BAF1000F00F4400005DA00EB800035
:103360004FF4400101EA50004FEA9059B9F1010FC2
:1033700000DDB9460A9850EA4A000ED044F61050D3
:10338000A5F2FF3545432F14B8F1000F1ED075424A
:10339000291E1EDDC9F100021CE0B8F1010F4FF03B
:1033A000000001D0302103E0F24305E02154401C2D
:1033B000B042FBDB30460022002121540B99C1F8BA
:1033C0000880C1E900200FB0BDE8F08FBD1B6D1C67
:1033D000DEE74A4600DA694206A800F0ADFB06AB1C
:1033E00093E8070003AB83E8070050460A9900F012
:1033F000B8FC8DE80700A0F500501F380090039836
:10340000002D0ADD42F21F014A460844002303A9A9
:103410000390684600F021FF09E0A0F500504A46FD
:103420001F38002303A90390684600F02BFF8DE8A6
:1034300007000004000C03D04FF0FF30410800E00B
:103440001046B8F1000F03D00022009215461EE08E
:10345000751E05D400F0BEFA303262556D1EF9D5E6
:10346000B3460122084302D000227F1C04E02078EA
:10347000302801D100227F1E002A099784D01DE048
:10348000112D07DA00F0A6FA303262556D1C50EAB1
:103490000102F5D1084302D00098C8B10EE0002126
:1034A000681E05E0235C625C63542254401E491C84
:1034B0008142F7DBAB46A81B401E0990002004F8B0
:1034C0000B000B98099AC0F80880C0E9002B7AE736
:1034D00011264FF0000857E72DE9F04F88460446C3
:1034E000D21D22F0070191B0D1E90001CDE90A0116
:1034F00000F0FFFF02460B98C00F01D02D2007E01F
:103500002068810701D52B2002E0202101EAC000BC
:10351000032A099001D0072A05DB034641462046CD
:1035200000F09EFA0BE12078800601D5E06900E00A
:103530000620B8F1650F814606D0B8F1660F18D0A5
:10354000B8F1670F70D131E00020B9F1110F009090
:1035500001DB112301E009F101030AAA01A90CA86A
:10356000FFF7E2FEDDE90C70002609F10105834654
:1035700047E001204B4600904FF000470AAA01A9FE
:103580000CA8FFF7D1FEDDE90DB00C995D460026D1
:1035900010B909F101000D18B9EB050003D4C0F111
:1035A000FF3609F10105A5EB09002BE0B9F1010F88
:1035B00001DA4FF001090020B9F1110F00904846DF
:1035C00001DD112300E003460AAA01A90CA8FFF7B8
:1035D000ABFEDDE90C704D460026834620780007DF
:1035E0000AD4AB4500DA5D4601A8012D04DD41197E
:1035F00011F8011C302907D04F4502DA17F1040FEA
:1036000004DA012082460FE06D1EEEE7002F02DC97
:10361000ED1B3E4403E0781CA84200DD7D1CB81B76
:1036200000F1010A4FF000472078000703D4AA45B3
:1036300001DB4FF0FF3A0021B7F1004F0DF14308D5
:103640008DF8431024D002202B23002F01DA7F4273
:103650002D230A21021EA0F1010000DC5FB197FBBF
:10366000F1FC97FBF1F201FB1C7C17460CF1300CCE
:1036700008F801CDEEE7A8F10100037021880905E3
:1036800001D5452100E06521A0F1010800F8011CE9
:1036900009980FA9A1EB0807FF1D00B101204119EE
:1036A00001EBEA70A1693844081A401EA061207835
:1036B000C00602D42046FFF763FC099828B1D4E97C
:1036C00001219047206A401C20622078C00622D544
:1036D0002046FFF755FC1EE0002E04DBB34502DD5B
:1036E00001A8805D00E03020D4E901219047206AE4
:1036F000401C2062761CAAF101005FEA000A0AD190
:1037000000F064F9C0680168405CD4E90121904789
:10371000206A401C2062281EA5F10105DCDC07E0C0
:10372000D4E9012118F8010B9047206A401C20625F
:10373000381EA7F10107F3DC2046FFF737FC032012
:1037400011B041E601694A1C02610878704700B572
:103750008FB0CDE901310021059105497944CDE9CA
:10376000031011466846FFF76FFC0FB000BD000064
:10377000E5FFFFFF0A6802F8010B0A607047D1E914
:1037800000239A4202D2531C0B6010707047000055
:103790002DE9FF5F15468A460446DFF8AC80F84401
:1037A0000027D8E900103E46CDE9001010E03AF8B5
:1037B00016106A4602A800F031FA411C07D02178A1
:1037C000890603D5E269391891420DD80744761C61
:1037D0002078800602D5E069B84205DDAE42E6DB1E
:1037E0003AF816000028E2D1A069C01BA06120466B
:1037F000FFF7C6FBD8E90010CDE90010002017E064
:103800003AF818106A4602A800F008FAB0F1FF3F33
:1038100081460BD000250DF1080B05E0D4E901210C
:103820001BF8050090476D1C4D45F7D308F10100CA
:10383000B0428046E4DB206A384420622046FFF72D
:10384000B5FBBDE8FF9F00005E2900002DE9F041B7
:103850008046D21D22F007020025D2E90002F52998
:1038600015A614D0011E72F1000106DA0023D0EB78
:10387000030063EB020211A608E0D8F800108B07E2
:1038800001D50FA602E0490701D50EA60125114674
:10389000002408F1240704E000F09CF830323A5587
:1038A000641C50EA0102F7D12B46324621464046BD
:1038B000BDE8F041FFF7CABC000000002D00000089
:1038C0002B0000002000000030B4002100F124048F
:1038D00008E002F00705D208303542EA4372DB08FF
:1038E0006554491C52EA0305F3D10468002310A271
:1038F000250707D5A40600D421B1C46901230DA270
:10390000641EC46130BCFFF7A1BC10B5044621465B
:103910001068FFF769FC02462046BDE8104000230E
:10392000D2E7D21D22F00701D1E90023CCE7000045
:103930000000000030000000F0B40D4601880905C9
:1039400002D5214C7C4402E01F4C7C440E34002103
:1039500000F1240608E002F00F071209E75D42EAD1
:1039600003721B097754491C52EA0307F3D102780A
:103970000023120704D5702D06D009B1022311349B
:103980002246F0BCFFF762BC01231034F8E770B5A3
:1039900004460D4621461068FFF726FC02462946DC
:1039A0002046BDE870400023C6E7D21D22F0070381
:1039B000D3E90023C0E70368126843F020030360E3
:1039C0000823C3610023B7E7C02700000048704701
:1039D0001405002030B5B0F10A024FEA900E71F1E3
:1039E00000034EEA817EB0EB0E0061EB91014FEADD
:1039F000101E4EEA017E10EB0E0041EB11114FEA52
:103A0000102E4EEA016E10EB0E0041EB11214FEA31
:103A1000104E4EEA014E10EB0E0041EB11414018E2
:103A200041F100014FEAD00040EA41704FEAD10174
:103A300010EB80054FEA810444EA907444EB0104E2
:103A40006D1944EB0404521BA3414FF0000348BF1F
:103A50000A3200D530BD401C41F1000130BD0000EC
:103A60002DE9F0411F46044603260168072A01F4A8
:103A7000006004DB08B116A505E016A503E008B157
:103A800015A500E015A521F010002060A069C01E5A
:103A9000A0610FB1401EA0612046FFF771FA4FB13F
:103AA000D4E9012138469047206A401C2062C01C9E
:103AB000206206E0206AFAE7D4E9012115F8010B3B
:103AC0009047761EF8D22046FFF770FABDE8F081E5
:103AD0004E414E006E616E00494E4600696E6600B2
:103AE00010B5436913B1AFF3008001E0FFF785FB28
:103AF000012010BD127800F124010A7000224A70E2
:103B00000122EDE711684FF0FF32E9E710B5436994
:103B100013B1AFF3008001E0FFF73AFE012010BDC2
:103B2000128800F1240182840022C2840122EDE780
:103B300011684FF0FF32E9E72DE9F047814616465C
:103B40008AB0354878440DC88DE80D003248784475
:103B5000801C03AC0DC884E80D0041F69B3008447E
:103B6000372190FBF1F290FBF1F5A5F1800501FB07
:103B700012041B3C02D56442012000E00020DFF863
:103B800098A080460027FA44AAF1BE0A0EE0E0079A
:103B90000AD03246684607EB470101230AEB810150
:103BA00000F070FB8DE8070064107F1C002CEED144
:103BB000194F7F44AE3F19E0E80715D007EB04101A
:103BC0000DF1180A90E80E008AE80E00C068F04275
:103BD00001D1981908903246012306A903A800F0E4
:103BE00051FB03AB83E807006D10641C002DE3D18B
:103BF0004FF0010332466946B8F1000F03A802D026
:103C000000F02BFB01E000F03DFBC9E90001C9F821
:103C100008200AB0BDE8F0876426000070B516469B
:103C20000C46054600F044F8036893F801010128AA
:103C300006D0FF2C0FD8185D68B101202C7070BD24
:103C4000D3F807013246214603F2071303442846FE
:103C5000BDE8704018474FF0FF3070BD0048704716
:103C6000F40400207546FFF7F9FFAE4605006946EB
:103C7000534620F00700854618B020B5FDF73EFCFE
:103C8000BDE820404FF000064FF000074FF000085D
:103C90004FF0000B21F00701AC46ACE8C009ACE8DE
:103CA000C009ACE8C009ACE8C0098D467047000007
:103CB00010B5FFF78BFE001D10BD00BF9908000076
:103CC00010B50446AFF300802046BDE81040FCF775
:103CD000CCBA00004FF0013C50F8042B51F8043BE3
:103CE0009A4221D1A2EB0C03934313EACC1317D1D0
:103CF00050F8042B51F8043B9A4215D1A2EB0C0367
:103D0000934313EACC130BD150F8042B51F8043B26
:103D10009A4209D1A2EB0C03934313EACC13DBD0F4
:103D20004FF00000704700BFD01A01BAB1FA81F11C
:103D300001F0180122FA01F0CB40C1F12001DBB201
:103D4000C0B2C01A2CFA01F3D11A914311EAC3117F
:103D5000E6D1704701491820ABBEFEE726000200FD
:103D600070475FEA400C08BF91F0000F4FEA8C23C8
:103D70004FEAC12243EA51514FEA1C5018BF00F5E7
:103D8000F0404FEA300018BF41F000415FEA6C5C40
:103D900000F02980BCF1FF3F08BF40F08040704731
:103DA000130C06BF12044FF0100C4FF0000C130E52
:103DB00004BF12020CF1080C130F04BF12010CF126
:103DC000040C930F04BF92000CF1020CD30F04BF3C
:103DD00052000CF1010C11464FF00002A0F11F003F
:103DE000A0EB0C00704711F0004F08BF704731F096
:103DF00000413FF4D5AF0B0C06BF09044FF0100C87
:103E00004FF0000C0B0E04BF09020CF1080C0B0F55
:103E100004BF09010CF1040C8B0F04BF89000CF1E5
:103E2000020CCB0F04BF49000CF1010CCCF12003B4
:103E3000A0EB0C0022FA03F302FA0CF241EA0301B0
:103E400000F10100704720F07F4C80EA030023F06E
:103E50007F47ACEB070303F57C5300F0004003F110
:103E6000FF032DE980494FEA154B09B44FEA14438B
:103E700025EA0B4E24EA03480FF2042606EB13272B
:103E800049083E785FEA320203FB0667C7F5000780
:103E900007FB06F64FEA54374FEAD64606F102060C
:103EA00007FB066CCCF1005C4FEA1C472CEA074C80
:103EB00007FB06F40CFB06F504EB15464FEA9616D5
:103EC00034BF00204FF000404FEAD13706FB07FC1B
:103ED0004FEA1C4C0CFB0BF7D21B03FB0CF761EBFE
:103EE00007010CFB0EF7B0EB074072EB17420CFB1F
:103EF00008F734BFA2EB0742B2EB074261EB174170
:103F00004FEA0C444FEA910706FB07FC4FEA1C4CB2
:103F10000CFB0BF7B0EBC74072EB573203FB0CF70F
:103F200034BFA2EBC742B2EBC74261EB57310CFB87
:103F30000EF7B0EBC70072EB57720CFB08F734BFFB
:103F4000A2EBC702B2EBC70261EB5771039F4FEAC6
:103F5000816141EA921104EBCC044FEAD1374FEA78
:103F6000826206FB07FC42EA90124FEA80604FEA49
:103F70001C4C0CFB0BF7D21B03FB0CF761EB07018E
:103F80000CFB0EF7B0EB074072EB17420CFB08F787
:103F900034BFA2EB0742B2EB074261EB17414FEA95
:103FA0008C554FEA910704EB9C2406FB07FC4FEA73
:103FB0001C4C0CFB0BF7B0EBC74072EB573203FB0A
:103FC0000CF734BFA2EBC742B2EBC74261EB5731EB
:103FD0000CFB0EF7B0EBC70072EB57720CFB08F747
:103FE00034BFA2EBC702B2EBC70261EB577115EB0E
:103FF0004C254FEA816141EA92114FEA82624FEA11
:10400000D13742EA901206FB07FC44F100044FEA64
:1040100080604FEA1C4C0CFB0BF7D21B03FB0CF728
:1040200061EB07010CFB0EF7B0EB074072EB174298
:104030000CFB08F734BFA2EB0742B2EB074261EB7F
:10404000174115EB1C154FEA813141EA92414FEAC5
:10405000823242EA90424FEA80304FEA0C7644F1D5
:10406000000448EA03434EEA0B484FF0000EB2EB5F
:10407000080C71EB030724BF624639464EEB0E0E67
:104080004FF0000B0018524149414BEB0B0BB2EBC8
:10409000080C71EB03077BF1000B24BF6246394625
:1040A0004EEB0E0E4FF0000B0018524149414BEB06
:1040B0000B0BB2EB080C71EB03077BF1000B24BF79
:1040C000624639464EEB0E0E51EA020718BF46F023
:1040D000010616EB0E7655F1000254F1000103D5EE
:1040E000BDE88901BDE80088BDE88901BDE8004858
:1040F000B619524141EB0101A3F1010370478080E1
:104100007F7E7D7C7B7A7978777676757473727131
:1041100071706F6E6E6D6C6C6B6A6A6968686766E9
:1041200066656464636362616160605F5F5E5E5D7B
:104130005D5C5C5B5B5A5A595958585757565655EF
:1041400055555454535352525251515050504F4F51
:104150004F4E4E4D4D4D4C4C4C4B4B4B4A4A4A49A1
:1041600049494848484747474746464645454544E4
:104170004444444343434342424242414141002B71
:104180009C4630D477002BD01CB54FEA370703B4D8
:104190004FF010004FF01001BAF1000F06D0BCF143
:1041A000000FDCBF40F0080040F008014FF00000B5
:1041B0000FBCBDE810400BF1010BBBF1010F08BFB4
:1041C0005FEA170722BF12F1010211F101014FF05E
:1041D000004143F1000300F0004043EA0000704753
:1041E000F9D35708D0E746EA064613F1400F4FEAE5
:1041F00016461FDD13F1200FDFBF16430A460021CC
:1042000020335B42BED0C3F1200746EA064602FADD
:1042100007F74FEA164646EA0706C3F1200722FAD7
:1042200003F201FA07F721FA03F14FF0000342EA23
:104230000702A7E746EA020646EA06464FEA16469E
:1042400046EA0106BCBF46EA0646360C4FF00003BC
:104250004FF000024FF0000194E72DE9804C9A46A0
:10426000934670B491E8380007C831EA400C48BF63
:1042700034EA430C03D5FFF7E6FDFFF780FFF0BCFF
:10428000BDE8008C2DE9804C9A46934670B491E8C5
:10429000380007C810F0804F08BF13F0804F03D1DB
:1042A00000F005F8FFF76BFFF0BCBDE8008C20F0D4
:1042B0007F4780EA030023F07F4C07EB0C03A3F554
:1042C0007C5300F00040A3F1FE0392F0000F00F0D9
:1042D000B38095F0000F00F077802DE901494FEA97
:1042E00011404FEA144621EA004800FB06FC24EA8C
:1042F000064708FB06F607FB08F800FB07F718EB74
:1043000006484CEB164C4FEA124B18EB07484FEAA5
:1043100015464CEB174022EA0B4E0BFB06FC25EA38
:1043200006470EFB06F607FB0EFE0BFB07F71EEB20
:10433000064E4CEB164C4FF000061EEB074E4CEBB6
:10434000174B18EB0B0840F1000018EB0E0B58EB65
:10435000000840F100008F1A4FF000013CBFC94334
:10436000661B14BFB5EB040C00213CBFC943F61B10
:104370004FEA17444EEA8E0E27EA04454FEA1C47DF
:1043800004FB07622CEA074C05FB07F70CFB05F65C
:1043900004FB0CFC16EB074642EB174216EB0C46EF
:1043A00042EB1C421BEB060658EB0202414146EA77
:1043B0009E0601D5BDE80189B619524141EB0101C4
:1043C000A3F10103BDE801894FEA14454FEA114703
:1043D00024EA054621EA074C05FB07F406FB07F72C
:1043E0000CFB06F105FB0CFC11EB074144EB1744F9
:1043F0004FEA124711EB0C4144EB1C4422EA074CF4
:1044000005FB07F206FB07F70CFB06F605FB0CFCA9
:1044100016EB074642EB174216EB0C4642EB1C45E7
:104420006A1854F1000148BF7047B619524141EB78
:104430000101A3F10103704795F0000F37D04FEA57
:1044400011424FEA144721EA024624EA074C02FBD4
:1044500007F106FB07F70CFB06F402FB0CFC14EB60
:10446000074441EB17414FEA154714EB0C4441EB6D
:104470001C4125EA074C02FB07F506FB07F70CFB7E
:1044800006F602FB0CFC16EB074645EB174516EB50
:104490000C4645EB1C42121951F1000148BF704710
:1044A000B619524141EB0101A3F1010370474FEAF4
:1044B00014454FEA114724EA054621EA074C05FB5B
:1044C00007F106FB07F70CFB06F24FF0000605FBB1
:1044D0000CFC12EB074241EB174112EB0C4251EB83
:1044E0001C4148BF7047921841EB0101A3F1010341
:1044F0007047490050EAC12018BF04204A0D18BF78
:1045000040F0010040F2FF72B2EB515F08BF40F093
:104510000200012808BF0520704730380A2801D260
:10452000012070470020704710B500290AD0087894
:10453000002807D005487844FFF7CCFB002801D0BD
:10454000002010BD0248784410BD0000AE1C0000E1
:10455000A61C000010B500290AD00878002807D052
:1045600005487844FFF7B6FB002801D0002010BDB5
:104570000248784410BD00009E1C0000961C0000FC
:104580000808A0F500114FEA3101704743004FEAD7
:10459000D30C4FEA3C0C43401FBF40070CF1605165
:1045A00013F0FE4F70471CF0006F03D100200CF099
:1045B000004170470CF0004343EA507010B540EAE8
:1045C000CC0000F066F900BF000000924FEA000145
:1045D000FFF7D6BF4FF000414FF00000A1F50021DA
:1045E000704700004FF47F0C1CEAD0121EBF1CEA7B
:1045F000D11392EA0C0F93EA0C0F00F0858090EA39
:10460000010F48BF42F4807240F4000C41F40000F6
:104610002CF07F4120F07F4000B58142A2EB0302E5
:104620000FF2081CACEB504EC0F100009EF800E009
:104630004FEA4E0E00FB0EFC38BF49004FEA2C1C1F
:1046400002F5FA020CFB0EF34FEACE1E4FEA112CD4
:104650004FEAC1210EEB635E42EB22420EFB0CFCE3
:104660004FEA1C5300FB03114FEA112C4FEA0131B2
:104670000EFB0CFC4FEADC4C00FB0C11C14228BFC6
:1046800009184CEB03335DF804EB10EB410143EBED
:10469000C250B2F57C0F38BF704729D512F0F00F29
:1046A0001CBF00F1C04000F00040704700818283D1
:1046B0008485868788898B8C8D8E8F919293959631
:1046C00097999A9C9D9FA0A2A3A5A7A8AAACAEB0BB
:1046D000B2B3B5B7B9BCBEC0C2C5C7C9CCCED1D4C0
:1046E000D7D9DCDFE2E6E9ECF0F3F7FAFE000000F0
:1046F0004FEA400C0CF1807CBCF17E4F28BF704724
:10470000B0F1C04000F00BB990EA010F0CEAD113F0
:1047100048BF42F48072624538BF634507D213F444
:104720007F0F16D080EA010000F00040704710B5FE
:1047300000F0AFF8097EFC3E00F005B880EA010009
:1047400000F00040704780EA010000F0004000F0F7
:10475000E6B812F47F0F04BF0248704780EA0100F8
:1047600000F0DDB80000C07FB0FA80F310FA03F269
:10477000C3F19D030AD0D90501EB1220530638BFBF
:10478000704700F1010008BF20F0010070470000F1
:104790004FF47F0C1CEAD0121EBF1CEAD11392EA20
:1047A0000C0F93EA0C0F00F0478090EA010F48BF0E
:1047B00042F480724FF0004C4CEA00204CEA012198
:1047C00002EB0302A0FB0113A2F50002002918BFAF
:1047D00043F001035B0028BF4FEA330342EB224260
:1047E0005FEA132C4CEBC2502EBFBCEB436FB2F50B
:1047F0007C0F70474FEA036CBCF1004F08BF20F0FC
:104800000100B2F57C0F38BF70470BD582F0FF0274
:1048100012F5803FC8BF704700F1C040D8BF00F01C
:104820000040704700F5000C5FEA4C0C48BF704731
:10483000B0F1C04000F073B890EA010F0CEAD11358
:1048400048BF42F48072624538BF634504D280EAB3
:10485000010000F00040704710B500F01AF800BFEA
:104860008900013E00F007B800F009B85FEA410C8A
:104870005FEA1C6C08D080EA010000F050B85FEAE3
:10488000400C5FEA1C6CF6D14FF00040A0F58000B0
:1048900070470EF1020E2EF0030E5EF8044B244218
:1048A00004D44FEA4102B2F17F4F11D84FEA4003DE
:1048B000B3F17F4F0CD80ED14FEAD07CB2F17F4FCD
:1048C0000CEB4C0C0CF1020C08BF4CEBD17C04E05F
:1048D0004FF0080C01E04FEAD17C0CEB4C0324FABA
:1048E00003F404F00704B4F1040C06D20EEB840CBC
:1048F000BDE810404CF0010C6047DFE80CF0070801
:1049000002024FF00040A0F5800010BD08464200B2
:1049100018BFD2F1807288BF00F0004010BDFF21A7
:1049200041EAD050C0057047FEF7D6BD0000000038
:104930000000000000000000000000003F400000F8
:104940000000000000003000400030004000000087
:1049500009000BC03D000BC03D00090018C02440F9
:104960007FE0224031800000180024C01B000D8031
:104970003240018003801C4027401C8007400040DB
:1049800010006000000000000000000000000000B7
:1049900000001F80204040200000402020401F8059
:1049A00000000000090006001F800600090000004A
:1049B000040004003F8004000400000000100060B8
:1049C00000000000000000000400040004000400D7
:1049D0000400000000000040000000000000000093
:1049E000002001C006003800400000001F80204069
:1049F000204020401F800000000010403FC00040C9
:104A00000000000018C0214022402440184000004F
:104A100010802040244024401B80000002000D0034
:104A200011003FC0014000003C802440244024404D
:104A3000238000001F802440244034400380000075
:104A40003000200027C03800200000001B802440D8
:104A5000244024401B8000001C0022C02240224031
:104A60001F8000000000000008400000000000005F
:104A700000000000046000000000000000000400CE
:104A80000A001100208040400900090009000900C7
:104A90000900000000004040208011000A000400CE
:104AA0001800200023402400180000001F80204030
:104AB000274029401F400000004007C039000F0078
:104AC00001C0004020403FC0244024401B80000023
:104AD0001F802040204020403080000020403FC008
:104AE000204020401F80000020403FC024402E4036
:104AF00030C0000020403FC024402E0030000000A5
:104B00000F001080204022403380020020403FC030
:104B1000040004003FC02040204020403FC020400F
:104B2000204000000060202020203FC02000200006
:104B300020403FC024400B0030C0204020403FC0F8
:104B400020400040004000C03FC03C0003C03C008B
:104B50003FC0000020403FC00C4023003FC0200069
:104B60001F802040204020401F80000020403FC088
:104B700024402400180000001F802140214020E034
:104B80001FA0000020403FC02440260019C0004064
:104B900018C02440244022403180000030002040D2
:104BA0003FC020403000000020003F800040004017
:104BB0003F80200020003E0001C007003800200098
:104BC000380007C03C0007C038000000204039C052
:104BD000060039C0204000002000384007C038409F
:104BE00020000000304021C02640384020C0000096
:104BF000000000007FE04020402000000000700026
:104C00000C000380004000000000402040207FE0B6
:104C10000000000000002000400020000000000014
:104C20000010001000100010001000100000000024
:104C30004000000000000000000002800540054028
:104C400003C0004020003FC0044004400380000037
:104C50000000038004400440064000000000038080
:104C6000044024403FC00040000003800540054050
:104C700003400000000004401FC0244024402000E6
:104C8000000002E0055005500650042020403FC0BF
:104C90000440040003C000400000044027C000405E
:104CA0000000000000100010041027E000000000C9
:104CB00020403FC00140070004C004402040204085
:104CC0003FC000400040000007C0040007C00400CF
:104CD00003C00000044007C00440040003C00040BB
:104CE000000003800440044003800000041007F02B
:104CF000045004400380000000000380044004507E
:104D000007F00010044007C0024004000400000047
:104D1000000006400540054004C0000000000400FB
:104D20001F80044000400000040007800040044051
:104D300007C000400400070004C001800600040012
:104D4000060001C0070001C006000000044006C0C4
:104D5000010006C0044000000410071004E00180B8
:104D6000060004000000044005C0064004400000A6
:104D70000000000004007BE0402000000000000074
:104D80000000FFF000000000000040207BE0040075
:104D90000000000040008000400020002000400093
:104DA0000000000000000000000000000000000003
:104DB0000000000000001FCC000C000000000000FC
:104DC00000000800300060000800300060000000B3
:104DD000022003FC1E20022003FC1E2002200000F3
:104DE00000000E1811043FFF10840C780000000032
:104DF0000F0010840F3800C0077818840078000076
:104E000000780F8410C411240E9800E40084000878
:104E100008006800700000000000000000000000B2
:104E200000000000000007E0181820044002000005
:104E3000000040022004181807E0000000000000F5
:104E40000240024001800FF0018002400240000059
:104E50000080008000800FF800800080008000004B
:104E60000001000D000E0000000000000000000026
:104E700000000080008000800080008000800080B2
:104E80000000000C000C000000000000000000000A
:104E900000000006001800600180060018002000D5
:104EA000000007F0080810041004080807F00000CC
:104EB0000000080408041FFC0004000400000000B7
:104EC00000000E0C10141024104411840E0C00006D
:104ED00000000C1810041104110412880C7000005A
:104EE000000000E00320042408241FFC002400002C
:104EF00000001F9810841104110410881070000025
:104F0000000007F0088811041104188800700000E0
:104F100000001C00100010FC13001C00100000001A
:104F200000000E3811441084108411440E38000023
:104F300000000700088C10441044088807F00000A7
:104F4000000000000000030C030C00000000000043
:104F50000000000000010106000000000000000049
:104F60000000008001400220041008081004000026
:104F70000220022002200220022002200220000043
:104F80000000100408080410022001400080000006
:104F900000000E001200100C106C10800F000000BA
:104FA00003E00C1813E4142417C4082807D00000E9
:104FB0000004003C03C41C40074000E4001C000443
:104FC00010041FFC1104110411040E88007000006D
:104FD00003E00C1810041004100410081C1000004A
:104FE00010041FFC100410041004080807F000004F
:104FF00010041FFC1104110417C410040818000049
:1050000010041FFC1104110017C01000080000005C
:1050100003E00C181004100410441C780040000039
:1050200010041FFC10840080008010841FFC1004FA
:105030000000100410041FFC100410040000000005
:1050400000030001100110011FFE100010000000FD
:1050500010041FFC110403801464181C10040000C9
:1050600010041FFC1004000400040004000C0000E5
:1050700010041FFC1F0000FC1F001FFC1004000098
:1050800010041FFC0C04030000E010181FFC1000AB
:1050900007F00808100410041004080807F00000C6
:1050A00010041FFC10841080108010800F0000007E
:1050B00007F0081810241024101C080A07F200003A
:1050C00010041FFC1104110011C011300E0C00045B
:1050D00000000E1C11041084108410441C380000C1
:1050E0001800100010041FFC10041000180000002D
:1050F00010001FF810040004000410041FF8100032
:1051000010001E0011E0001C007013801C00100035
:105110001FC0103C00E01F0000E0103C1FC000005A
:105120001004180C163401C001C01634180C1004F9
:1051300010001C00130400FC13041C0010000000ED
:105140000804101C1064108413041C0410180000C0
:105150000000000000007FFE40024002400200000C
:10516000000030000C0003800060001C0003000001
:1051700000004002400240027FFE000000000000EC
:10518000000000002000400040004000200000001F
:105190000001000100010001000100010001000107
:1051A000000040004000200000000000000000005F
:1051B00000000098012401440144014400FC000463
:1051C00010001FFC0088010401040088007000002A
:1051D0000000007000880104010401040088000040
:1051E0000000007000880104010411081FFC000485
:1051F000000000F8014401440144014400C80000DB
:105200000000010401040FFC110411041100180036
:10521000000000D601290129012901C90106000069
:1052200010041FFC008401000100010400FC0004C4
:1052300000000104190419FC00040004000000002F
:105240000000000300010101190119FE0000000027
:1052500010041FFC0024004001B4010C01040000F4
:105260000000100410041FFC0004000400000000F3
:10527000010401FC0104010001FC0104010000FC27
:10528000010401FC008401000100010400FC000491
:10529000000000F8010401040104010400F800000A
:1052A000010101FF00850104010400880070000075
:1052B00000000070008801040104010501FF0001E5
:1052C0000104010401FC00840104010001800000CC
:1052D000000000CC012401240124012401980000D5
:1052E00000000100010007F80104010400000000B3
:1052F000010001F8000400040004010801FC00049E
:10530000010001800170000C0010016001800100AB
:1053100001F0010C003001C00030010C01F001006F
:1053200000000104018C00740170018C0104000074
:10533000010101810171000E00180160018001006E
:1053400000000184010C013401440184010C0000BF
:10535000000000000000000001003EFC400240028E
:105360000000000000000000FFFF0000000000003F
:105370000000400240023EFC01000000000000006E
:1053800000006000800080004000400020002000FD
:10539000000000000000000000000000000000000D
:1053A00000000000000000000000000000000000FD
:1053B00000000000000000000000000000000000ED
:1053C0000000000F80380FFE380F8038000000000A
:1053D00000000000000000000000000000000100CC
:1053E000000600000C00003800003100000600003C
:1053F0000C00003800003000000000000000000039
:1054000061800067F807F9800061800061800061B9
:10541000800061800067F807F9800061800000006B
:1054200000000000000001C0E003E0F006300804C6
:1054300018081FFFFE040E080787F00381E0000034
:105440000000000001F000060C00040408060C70C7
:1054500001F9C0000E00003BE000EC18070808044A
:105460000C180003E00000000001E00007F003F862
:1054700018041C0804170807E1D003C0E00023B09B
:10548000003C08002008000010000000000000019F
:1054900000003100003200001C000000000000008D
:1054A00000000000000000000000000000000000FC
:1054B00000000000000000000000000000000000EC
:1054C0007F0001FFC00780F00C00181000042000CE
:1054D000020000000000002000021000040C001870
:1054E0000780F001FFC0007F000000000000000006
:1054F0000000000000000000000000004200006604
:1055000000006600003C0000180003FFC000180007
:10551000003C000066000066000042000000000041
:10552000080000080000080000080000080001FF53
:10553000C000080000080000080000080000080083
:1055400000000000000100003100003200001C00DB
:10555000000000000000000000000000000000004B
:105560000000000000000000080000080000080023
:105570000008000008000008000008000008000003
:10558000080000080000000000000000000000000B
:105590003800003800003800000000000000000063
:1055A00000000000000000000000000000000000FB
:1055B000000600001C000070000180000E00003892
:1055C0000000C0000700001C0000300000000000C8
:1055D000000000007F8001FFE003807006001804D7
:1055E000000804000806001803807001FFE0007F37
:1055F0008000000000000000000001000801000819
:1056000001000803FFF807FFF80000080000080089
:10561000000800000000000000000001C03802C0C7
:1056200058040098040118040218040418061C18F1
:1056300003F81801E0F8000000000000000000017D
:10564000C0E003C0F00400080408080408080618B5
:105650000803F41801E7F00001E00000000000007A
:10566000000000000300000D0000110000610000B8
:10567000810803010807FFF80FFFF8000108000187
:10568000080000000000000000E007FCD006080849
:10569000061008061008061008061838060FF0064F
:1056A00007C0000000000000000000003F8001FF74
:1056B000E0038430020818041008041008041008DD
:1056C000071810030FF00007C000000000000000E2
:1056D000000003C0000700000600000600F80607EF
:1056E000F806180006E000070000060000000000B1
:1056F00000000001E1E003F7F0063410041808048C
:105700001808040C08040C0806161803F3F001C16D
:10571000E000000000000000F80003FC3003063841
:105720000402080402080402080404100308F0013B
:10573000FFC0007F0000000000000000000000002B
:105740000000000000000000703800703800703861
:105750000000000000000000000000000000000049
:10576000000000000000000000000000301A0030BF
:105770001C0000000000000000000000000000000D
:1057800000000000000000080000140000220000DB
:105790004100008080010040020020040010080049
:1057A000080000000000000021000021000021008E
:1057B0000021000021000021000021000021000044
:1057C000210000210000000000000000000008008F
:1057D0000804001002002001004000808000410009
:1057E0000022000014000008000000000000000378
:1057F000C00004C000040000080038080F38080882
:10580000380810000C300007E00003C00000000062
:10581000000000003F8000FFE0038070020F1006D0
:10582000708804C088048308047F8802C090030144
:105830002000FE400000080000180001F8003E08AB
:1058400001C20007020007E20000FE00001FC800BE
:1058500001F800003800000804000807FFF807FFFF
:10586000F8040808040808040808040808061808CA
:1058700003F41801E7F00001E00000000000000060
:105880003F8001FFE003807002001804000804005C
:10589000080400080400100600200780C000000073
:1058A00004000807FFF807FFF804000804000804D4
:1058B000000804001802001003807001FFE0007F60
:1058C0008000000004000807FFF807FFF80408083C
:1058D000040808040808040808043E080400080630
:1058E000001801006000000004000807FFF807FF2F
:1058F000F8040808040800040800040800043E0036
:10590000060000060000018000000000000000000A
:105910003F8001FFE00380700600180400080402C5
:10592000080402080203F00783F0000200000200EE
:1059300004000807FFF807FFF80408080008000043
:10594000080000080000080004080807FFF807FF27
:10595000F80400080000000000000400080400082B
:1059600004000807FFF807FFF80400080400080413
:105970000008000000000000000000000006000019
:105980000700000104000104000104000307FFFEFA
:1059900007FFFC04000004000004000004000807E6
:1059A000FFF807FFF8040C08001800003E0004C7C9
:1059B000800503C80600F804003804001800000839
:1059C00004000807FFF807FFF804000800000800BB
:1059D000000800000800000800000800001800008F
:1059E0006000000004000807FFF807800807FC00BB
:1059F000007FC00003F80007C00078000780080798
:105A0000FFF807FFF804000804000807FFF8070084
:105A10000803C00000E000003800001E000007007E
:105A20000001C00400F007FFF804000000000000BF
:105A30007F8001FFE0038070060018040008040066
:105A40000806001803003001FFE0007F800000001E
:105A500004000807FFF807FFF80404080404000422
:105A60000400040400040400060C0003F80001F024
:105A700000000000000000007F8001FFE003807054
:105A80000600880400880400C806003C03003E01AC
:105A9000FFE6007F8400000004000807FFF807FF0E
:105AA000F8040808040800040C00040F00040BC0EC
:105AB0000610F003F03801E00800000800000001C3
:105AC000E0F803F030063010041808041808040C3D
:105AD00008040C080206180207F00781E000000025
